:1000000030180020311D0000637C00001D1D000021
:100010001D1D00001D1D00001D1D00000000000032
:10002000000000000000000000000000E91D0000CA
:100030001D1D000000000000951D00001D1D00009A
:10004000851F0000851F0000851F0000851F000020
:10005000851F0000851F0000851F0000851F000010
:10006000851F0000851F0000851F0000851F000000
:10007000851F0000851F0000851F0000851F0000F0
:10008000851F0000851F0000851F0000851F0000E0
:10009000851F0000851F0000851F0000851F0000D0
:1000A000851F0000851F0000851F0000851F0000C0
:1000B000851F0000851F0000851F0000851F0000B0
:1000C000851F0000851F0000851F0000851F0000A0
:1000D000851F0000851F0000851F0000851F000090
:1000E000851F0000851F0000851F0000851F000080
:1000F000851F0000851F0000851F0000851F000070
:1001000081F0004102E000BF83F0004330B54FEAC8
:1001100041044FEA430594EA050F08BF90EA020F35
:100120001FBF54EA000C55EA020C7FEA645C7FEAC8
:10013000655C00F0E2804FEA5454D4EB5555B8BFEB
:100140006D420CDD2C4480EA020281EA030382EA5C
:10015000000083EA010180EA020281EA0303362DEE
:1001600088BF30BD11F0004F4FEA01314FF4801CC1
:100170004CEA113102D0404261EB410113F0004FD3
:100180004FEA03334CEA133302D0524263EB43038A
:1001900094EA050F00F0A780A4F10104D5F1200E28
:1001A0000DDB02FA0EFC22FA05F2801841F1000183
:1001B00003FA0EF2801843FA05F359410EE0A5F157
:1001C00020050EF1200E012A03FA0EFC28BF4CF088
:1001D000020C43FA05F3C01851EBE37101F000453E
:1001E00007D54FF0000EDCF1000C7EEB00006EEB4B
:1001F0000101B1F5801F1BD3B1F5001F0CD34908D5
:100200005FEA30004FEA3C0C04F101044FEA44522B
:1002100012F5800F80F09A80BCF1004F08BF5FEAB2
:10022000500C50F1000041EB045141EA050130BD92
:100230005FEA4C0C404141EB0101013C28BFB1F5A4
:10024000801FE9D291F0000F04BF01460020B1FAEF
:1002500081F308BF2033A3F10B03B3F120020CDAC2
:100260000C3208DD02F1140CC2F10C0201FA0CF0A0
:1002700021FA02F10CE002F11402D8BFC2F1200C05
:1002800001FA02F120FA0CFCDCBF41EA0C019040BB
:10029000E41AA2BF01EB0451294330BD6FEA040404
:1002A0001F3C1CDA0C340EDC04F11404C4F12002EF
:1002B00020FA04F001FA02F340EA030021FA04F301
:1002C00045EA030130BDC4F10C04C4F1200220FA58
:1002D00002F001FA04F340EA0300294630BD21FA96
:1002E00004F0294630BD94F0000F83F4801306BF5C
:1002F00081F480110134013D4EE77FEA645C18BF50
:100300007FEA655C29D094EA050F08BF90EA020FE6
:1003100005D054EA000C04BF1946104630BD91EADE
:10032000030F1EBF0021002030BD5FEA545C05D1E1
:100330004000494128BF41F0004130BD14F5800420
:100340003CBF01F5801130BD01F0004545F0FE4194
:1003500041F470014FF0000030BD7FEA645C1ABFC9
:10036000194610467FEA655C1CBF0B46024650EA00
:10037000013406BF52EA033591EA030F41F400212C
:1003800030BD00BF90F0000F04BF0021704730B5B2
:100390004FF4806404F132044FF000054FF0000187
:1003A00050E700BF90F0000F04BF0021704730B548
:1003B0004FF4806404F1320410F0004548BF40421D
:1003C0004FF000013EE700BF42004FEAE2014FEA72
:1003D00031014FEA02701FBF12F07F4393F07F4F4D
:1003E00081F06051704732F07F4208BF704793F050
:1003F0007F4F04BF41F40021704730B54FF4607463
:1004000001F0004521F000411CE700BF50EA010265
:1004100008BF704730B54FF000050AE050EA01020E
:1004200008BF704730B511F0004502D5404261EB7E
:1004300041014FF4806404F132045FEA915C3FF4BF
:10044000D8AE4FF003025FEADC0C18BF03325FEA5C
:10045000DC0C18BF033202EBDC02C2F1200300FA0D
:1004600003FC20FA02F001FA03FE40EA0E0021FA32
:1004700002F11444BDE600BF70B54FF0FF0C4CF420
:10048000E06C1CEA11541DBF1CEA135594EA0C0FD2
:1004900095EA0C0F00F0DEF82C4481EA030621EA0D
:1004A0004C5123EA4C5350EA013518BF52EA033548
:1004B00041F4801143F4801338D0A0FB02CE4FF0FA
:1004C0000005E1FB02E506F00042E0FB03E54FF02A
:1004D0000006E1FB03569CF0000F18BF4EF0010E22
:1004E000A4F1FF04B6F5007F64F5407404D25FEA1E
:1004F0004E0E6D4146EB060642EAC62141EA5551D1
:100500004FEAC52040EA5E504FEACE2EB4F1FD0C12
:1005100088BFBCF5E06F1ED8BEF1004F08BF5FEA90
:10052000500E50F1000041EB045170BD06F0004642
:1005300046EA010140EA020081EA0301B4EB5C04EF
:10054000C2BFD4EB0C0541EA045170BD41F48011E7
:100550004FF0000E013C00F3AB8014F1360FDEBF0C
:10056000002001F0004170BDC4F10004203C35DAE8
:100570000C341BDC04F11404C4F1200500FA05F36B
:1005800020FA04F001FA05F240EA020001F000420C
:1005900021F0004110EBD37021FA04F642EB060182
:1005A0005EEA430E08BF20EAD37070BDC4F10C04AC
:1005B000C4F1200500FA04F320FA05F001FA04F270
:1005C00040EA020001F0004110EBD37041F100015C
:1005D0005EEA430E08BF20EAD37070BDC4F1200567
:1005E00000FA05F24EEA020E20FA04F301FA05F2CF
:1005F00043EA020321FA04F001F0004121FA04F277
:1006000020EA020000EBD3705EEA430E08BF20EA46
:10061000D37070BD94F0000F0FD101F00046400080
:1006200041EB010111F4801F08BF013CF7D041EA02
:10063000060195F0000F18BF704703F00046520006
:1006400043EB030313F4801F08BF013DF7D043EAD7
:100650000603704794EA0C0F0CEA135518BF95EA8D
:100660000C0F0CD050EA410618BF52EA4306D1D114
:1006700081EA030101F000414FF0000070BD50EA33
:10068000410606BF1046194652EA430619D094EABD
:100690000C0F02D150EA013613D195EA0C0F05D1A7
:1006A00052EA03361CBF104619460AD181EA0301FB
:1006B00001F0004141F0FE4141F470014FF00000B3
:1006C00070BD41F0FE4141F4780170BD70B54FF04E
:1006D000FF0C4CF4E06C1CEA11541DBF1CEA1355CE
:1006E00094EA0C0F95EA0C0F00F0A7F8A4EB0504B0
:1006F00081EA030E52EA03354FEA013100F08880A7
:100700004FEA03334FF0805545EA131343EA12636F
:100710004FEA022245EA111545EA10654FEA002624
:100720000EF000419D4208BF964244F1FD0404F5DD
:10073000407402D25B084FEA3202B61A65EB030539
:100740005B084FEA32024FF480104FF4002CB6EBF6
:10075000020E75EB030E22BFB61A754640EA0C0076
:100760005B084FEA3202B6EB020E75EB030E22BFB6
:10077000B61A754640EA5C005B084FEA3202B6EBF7
:10078000020E75EB030E22BFB61A754640EA9C00B6
:100790005B084FEA3202B6EB020E75EB030E22BF86
:1007A000B61A754640EADC0055EA060E18D04FEA44
:1007B000051545EA16754FEA06164FEAC30343EAE4
:1007C00052734FEAC2025FEA1C1CC0D111F4801FB1
:1007D0000BD141EA00014FF000004FF0004CB6E7AA
:1007E00011F4801F04BF01430020B4F1FD0C88BF49
:1007F000BCF5E06F3FF6AFAEB5EB030C04BFB6EB54
:10080000020C5FEA500C50F1000041EB045170BD46
:100810000EF0004E4EEA113114EB5C04C2BFD4EB73
:100820000C0541EA045170BD41F480114FF0000EF7
:10083000013C90E645EA060E8DE60CEA135594EA73
:100840000C0F08BF95EA0C0F3FF43BAF94EA0C0F76
:100850000AD150EA01347FF434AF95EA0C0F7FF4EB
:1008600025AF104619462CE795EA0C0F06D152EA3F
:1008700003353FF4FDAE1046194622E750EA410623
:1008800018BF52EA43067FF4C5AE50EA41047FF434
:100890000DAF52EA43057FF4EBAE12E74FF0FF3C99
:1008A00006E000BF4FF0010C02E000BF4FF0010C6A
:1008B0004DF804CD4FEA410C7FEA6C5C4FEA430CE3
:1008C00018BF7FEA6C5C1BD001B050EA410C0CBF32
:1008D00052EA430C91EA030F02BF90EA020F002094
:1008E000704710F1000F91EA030F58BF994208BFFB
:1008F00090422CBFD8176FEAE37040F001007047B8
:100900004FEA410C7FEA6C5C02D150EA013C07D10E
:100910004FEA430C7FEA6C5CD6D152EA033CD3D059
:100920005DF8040B704700BF8446104662468C4653
:100930001946634600E000BF01B5FFF7B7FF002886
:1009400048BF10F1000F01BD4DF808EDFFF7F4FFAF
:100950000CBF012000205DF808FB00BF4DF808ED3A
:10096000FFF7EAFF34BF012000205DF808FB00BF5D
:100970004DF808EDFFF7E0FF94BF012000205DF87F
:1009800008FB00BF4DF808EDFFF7CEFF94BF012034
:1009900000205DF808FB00BF4DF808EDFFF7C4FF2D
:1009A00034BF012000205DF808FB00BF4FEA410280
:1009B00012F5001215D211D56FF47873B3EB6252B1
:1009C00012D94FEAC12343F0004343EA505311F0D8
:1009D000004F23FA02F018BF404270474FF000006A
:1009E000704750EA013005D111F0004008BF6FF0A8
:1009F000004070474FF00000704700BF7BB972B9EC
:100A00000029BEBF00204FF0004106E008BF0028CB
:100A10001CBF6FF000414FF0FF3000F057B8ADF150
:100A2000080C6DE904CE002909DB002B1ADB00F06D
:100A30004FF8DDF804E0DDE9022304B070474042DE
:100A400061EB4101002B1BDB00F042F8DDF804E014
:100A5000DDE9022304B0404261EB4101524263EB05
:100A600043037047524263EB430300F031F8DDF873
:100A700004E0DDE9022304B0404261EB410170472C
:100A8000524263EB430300F023F8DDF804E0DDE9B4
:100A9000022304B0524263EB4303704753B94AB98F
:100AA000002908BF00281CBF4FF0FF314FF0FF3076
:100AB00000F00CB8ADF1080C6DE904CE00F008F8B8
:100AC000DDF804E0DDE9022304B07047704700BFA1
:100AD0002DE9F04786468C460846089E1546744622
:100AE0001946002B40F0C2808542B2FA82F245D905
:100AF0004AB1C2F1200300FA02FC2EFA03F395403A
:100B000043EA0C0C94404FEA154EA8B2BCFBFEF829
:100B1000230C0EFB18CC08FB00F943EA0C43994563
:100B200028D9EB1808F1FF3704D2994502D9A8F16A
:100B300002072B44A3EB0903A4B2B3FBFEFC0EFB9C
:100B40001C330CFB00F044EA0344A04214D92C19D6
:100B50000CF1FF3304D2A04202D9ACF102032C44C1
:100B6000241A43EA07401EB1D44000233460736066
:100B7000BDE8F0874746DDE76346F1E792BB431BDC
:100B800001214FEA154EAFB2B3FBFEFC200C0EFB69
:100B90001C330CFB07F840EA0343984562D9EB1875
:100BA0000CF1FF3004D2984502D9ACF102002B447D
:100BB000A3EB0803A4B2B3FBFEFC0EFB1C330CFB3F
:100BC00007F744EA0344A7424ED92C190CF1FF332E
:100BD00004D2A74202D9ACF102032C44E41B43EA3D
:100BE0000040C0E7C2F1200320FA03F19540904095
:100BF0002EFA03F303434FEA154EAFB2B1FBFEFCEE
:100C00000EFB1C10190C0CFB07F841EA004188454B
:100C100004FA02F422D969180CF1FF3004D2884595
:100C200002D9ACF102002944A1EB08019BB2B1FB4F
:100C3000FEFC0EFB1C110CFB07F743EA01439F422D
:100C40000ED9EB180CF1FF3104D29F4202D9ACF15E
:100C500002012B44DB1B41EA004192E76046E3E7D7
:100C60006146F7E76046A3E76346B7E7834206D9E4
:100C700016B9002108467BE7C6E900E0F9E7B3FAB8
:100C800083F78FB9834201D3724508D8BEEB0204C3
:100C900060EB030301209C461EB9002168E738463B
:100CA000FAE7C6E9004CF8E7C7F1200CBB4022FA8E
:100CB0000CF41C432EFA0CF120FA0CF3B84001435B
:100CC0004FEA14490EFA07F5B3FBF9F81FFA84FE50
:100CD00009FB18300B0C08FB0EFA43EA00439A4557
:100CE00002FA07F240D9E31808F1FF3004D29A451E
:100CF00002D9A8F102002344A3EB0A0389B2B3FB93
:100D0000F9F809FB183308FB0EFE41EA03418E4552
:100D10002CD9611808F1FF3304D28E4502D9A8F10D
:100D20000203214443EA0040A0FB0298A1EB0E011C
:100D30004145CE46434602D306D14D4504D2B9EBD8
:100D4000020E68EB04030138002EA6D0B5EB0E02AC
:100D500061EB030101FA0CFC22FA07F34CEA0303EE
:100D6000F940C6E9003198E74046C5E74346D9E770
:100D70002DE9F04F8BB001F01BFE6D4F6D4E3860CA
:100D8000306807F04BFF28B96B480BB0BDE8F04F57
:100D900006F013BD4FF0FF38306883684021DB68F0
:100DA0009847014640B1654806F007FD00214FF421
:100DB000804008F0E8F8EFE7306804AA06F08FFCFE
:100DC0000028F0D1306806AA012106F088FC00282E
:100DD000E9D1306808AA022106F081FC0028E2D19E
:100DE000089B05980393FFF7DDFA4DA3D3E9002391
:100DF000FFF76CFC04460498DDF824900D46FFF7DD
:100E0000D1FA02460B4620462946FFF77FF9824673
:100E100007988B46FFF7C6FA41A3D3E90023FFF7F3
:100E200055FC044606980D46FFF7BCFA02460B46F1
:100E300020462946FFF76AF952465B4600F018F94A
:100E400039A3D3E90023FFF717FB00220023044650
:100E50000D46FFF783FD38B120462946384B002266
:100E6000FFF754F904460D46364B0022204629462A
:100E7000FFF72CFCFFF79AFD434203F0070300F055
:100E8000070B58BFC3F1000BD84524D04846FFF7E5
:100E900089FA23A3D3E90023FFF718FC044603983B
:100EA0000D46FFF77FFA02460B4620462946FFF71C
:100EB0002DF9254B002204460D46FFF74FFD88B162
:100EC000224806F07AFC0121214B0091386841F25A
:100ED000883201F02DFD4FF48040002108F053F8D6
:100EE000D84659E71B4B002220462946FFF754FD00
:100EF00030B1194806F061FC0121184B0091E5E77B
:100F00002D2202FB0BF202F12D035946144806F084
:100F100054FC144A0BEB8B03012100911344D5E7D9
:100F20000000000080842E41144C77B6D7A54C40B9
:100F300080040020000000206A9E0000879E0000C0
:100F40000080764000804640000022C0A49E000041
:100F5000349F000000002240C29E0000399F000024
:100F6000DF9E00000C9F0000032973B50546144660
:100F700060D8002A40D0072A5CD15A681C683848DB
:100F8000D1171346C4FB0031012B71F1000225DBA0
:100F900000F56E1000F65D7018182FA3D3E900233A
:100FA00041F10001FFF72AFD80B202281ED004287B
:100FB0001ED008281ED0102833D1032329492A69BE
:100FC00051F823101161526814691B01302223214A
:100FD0002846A44602B0BDE8704060472248181871
:100FE00061F100011CA3D3E90023DBE70023E5E75F
:100FF0000123E3E70223E1E71A881C4B33F8021BC5
:101000008A420BD12E6973680DF107029B6820217B
:1010100028469847002807DA02B070BD01340B2C2F
:10102000ECD16FF01500F7E79DF80720130704D403
:10103000082C05D16FF08500EEE70A2C08BF0924C3
:10104000736802F00F0242EA0412DB68D2B2202178
:1010500028469847E0E700BF3AA39500000000004B
:1010600040420F0028000020632EB5FF549E000070
:101070002DE9F84F17469046994623F000427B42EF
:10108000DFF8E4A13B4342EAD373534504460D46DF
:1010900009D8464221F00043064343EAD676564536
:1010A0008E46834608D942464B4620462946FFF7DE
:1010B0002DF804460D4616E009F1404606F5801667
:1010C0003E4303D1BDE8F84F00F0D2B84FEAA9760D
:1010D00006F0020653EA0B0B46EAD17617D1022E30
:1010E00005D0032E0AD020462946BDE8F88F48A334
:1010F000D3E9002348A1D1E90001D8E744A3D3E90B
:10110000002347A1D1E90001FEF7FEFFD1E7174315
:101110000DD1BEF1000F3EA3D3E9002303DA42A1B3
:10112000D1E90001F0E742A1D1E90001BFE7524552
:1011300024D1934218D1022E35A3D3E900230BD03A
:10114000032E0DD0012E03D03BA1D1E90001AEE763
:101150003BA1D1E90001D7E73BA1D1E90001A6E716
:101160003BA1D1E90001CFE7022EC0D0032EC5D0AC
:10117000012E4FF0000448D00025B4E75345C8D0F5
:101180009B1AB3F1747F4FEA23521ADB32A3D3E9DF
:10119000002327A1D1E90001FEF7B8FF04460D4660
:1011A000012E21D0022E23D0002E9CD02CA3D3E9D7
:1011B000002320462946FEF7A7FF17A3D3E9002303
:1011C000A2E7B9F1000F01DA3C320ADB42464B4696
:1011D00020462946FFF77AFA21F0004100F048F84E
:1011E000DCE700240025DBE705F100431D467AE734
:1011F0001BA3D3E9002320462946FEF785FF0246BC
:101200000B4605A1D1E900017EE74FF000456AE7F2
:1012100059F3F8C21F6EA501182D4454FB21094053
:10122000182D4454FB2109C0182D4454FB21F9BF4B
:10123000182D4454FB21F93F182D4454FB21E93F5C
:10124000182D4454FB21E9BFD221337F7CD90240C1
:10125000D221337F7CD902C0075C143326A6913C8F
:10126000075C143326A6A13C0000F07F00000000BC
:10127000C34A2DE9F84F21F00043934204460D463E
:101280008B4620D9BF4A934201D80CD158B122468F
:101290002B4620462946FEF739FF04460D462046D8
:1012A0002946BDE8F88FBBF1000F97A3D3E90023CF
:1012B00003DD97A1D1E90001EDE797A1D1E9000194
:1012C000FEF722FFE9E7B04A934211D8A2F1DE729D
:1012D00093420AD892A3D3E90023FEF717FFAB4B42
:1012E0000022FFF759FB0028D9D14FF0FF3A27E041
:1012F000A74A9342064621F0004700F2B880A2F5C3
:101300005022934200F29B8002463B463946FEF74C
:10131000FDFE9E4B0022FEF7F7FE002204460D461E
:101320004FF0804330463946FEF7F0FE02460B464A
:1013300020462946FFF7CAF94FF0000A04460D4639
:1013400022462B4620462946FFF796F802460B46D2
:1013500080468946FFF790F873A3D3E90023064639
:101360000F46FFF789F872A3D3E90023FEF7CEFEFC
:1013700032463B46FFF780F86FA3D3E90023FEF720
:10138000C5FE32463B46FFF777F86DA3D3E900234D
:10139000FEF7BCFE32463B46FFF76EF86AA3D3E980
:1013A0000023FEF7B3FE32463B46FFF765F868A31D
:1013B000D3E90023FEF7AAFE42464B46FFF75CF84E
:1013C00065A3D3E900238046894630463946FFF7B6
:1013D00053F863A3D3E90023FEF796FE32463B465B
:1013E000FFF74AF860A3D3E90023FEF78DFE3246EB
:1013F0003B46FFF741F85EA3D3E90023FEF784FEE6
:1014000032463B46FFF738F85BA3D3E90023FEF7EB
:101410007BFE32463B46FFF72FF802460B4640461E
:101420004946FEF773FE22462B46FFF725F8BAF130
:10143000FF3F02460B4644D12046294640E7534B26
:1014400000223946FEF760FE504B04460D4600224E
:1014500030463946FEF75AFE02460B4620462946DC
:10146000FFF734F94FF0010A04460D4668E7494A90
:1014700093421BD2484B00223946FEF745FE464BAD
:1014800004460D46002230463946FEF7F5FF3F4B35
:101490000022FEF73BFE02460B4620462946FFF798
:1014A00015F94FF0020A04460D4649E702463B494A
:1014B0003B460020FFF70AF94FF0030A04460D46A9
:1014C0003EE7374B374E03EBCA03D3E90023FEF761
:1014D0001BFE22462B46FEF717FE06EBCA06024607
:1014E0000B46D6E90001FEF70FFEBBF1000FBCBFB3
:1014F000024601F1004304460D46BCBF14461D469A
:10150000CDE600BFAFF30080075C143326A6913C04
:10151000182D4454FB21F93F182D4454FB21F9BFE9
:101520009C7500883CE4377E11DA22E33AAD903FA7
:10153000EB0D76244B7BA93F513DD0A0660DB13F0A
:101540006E204CC5CD45B73FFF8300922449C23F72
:101550000D5555555555D53F2F6C6A2C44B4A2BF37
:101560009AFDDE522DDEAD3F6D9A74AFF2B0B33FFF
:10157000711623FEC671BC3FC4EB98999999C93F77
:10158000FFFF0F440000F07FFFFFDB3F0000F03F54
:10159000FFFFF23F008003400000F83F0000F0BF73
:1015A000A89B0000C89B0000014B1B68184700BFA8
:1015B00004000020014B1860704700BF04000020A9
:1015C00030B585B004460D4610220021684607F06C
:1015D0009AFD02238DF802302A46044B01932146DE
:1015E000684605F01BF805B030BD00BFA915000026
:1015F00080B505460E461746984604F027FC03467C
:1016000007F046FFDFF81890044649F800304246DC
:1016100030463946A84754F8090000F0A5FB00BF42
:10162000080000002DE9F047058B04462807904686
:1016300011D4022905F0070540F0CC80204606F0C1
:10164000C9F878B10138218B042811D8DFE800F0FF
:10165000C2106D85950001290CBF45F0100545F0BD
:101660002005258388F31188BFF36F8FBDE8F087CD
:1016700001F0070AAA4500F0A5800027B9463E46BA
:10168000A368002B00F0BC8041F00801218388F39F
:101690001188BFF36F8FA168002900F0BA800D6830
:1016A000002900F0B680D1F8048033465246204627
:1016B000C047002D76D02B6829461D46F0E701F083
:1016C00007035A1F012A1BD8002221F00701062B0D
:1016D000276889B2C4E9002209D13B4603E0628B46
:1016E000013262831B68002BF9D141F00201218392
:1016F000204606F06FF800287AD041F0200176E00D
:10170000042B0AD121F0070189B22183204606F07B
:1017100061F810B141F020012183218B01F0070A0B
:10172000AA454FD00027B946AAE7236921F007014F
:1017300041F00601062DD3F8009021832DD1B9F197
:10174000000F3FD041F00801218388F31188BFF3D7
:101750006F8F3A492046C84729E021F007012369E5
:1017600041F0040189B2042DD3F804902183E6D01E
:1017700000273E464FF0040A82E721F00701236963
:1017800041F0050189B2052DD3F808902183D6D008
:1017900000273E464FF0050A72E700273E464FF00D
:1017A000060A6DE72B4687E7B9F1000FD1D1EFF3B9
:1017B0001188202383F31288BFF36F8F238B23F0CC
:1017C00008032383258BEA062ED525F010032383F7
:1017D00005F007056669218B002EBFF670AF002368
:1017E0002768C4E9003321F0070141F0010121839A
:1017F000218B01F0070AAA454FF000097FF440AFA2
:10180000002F9CD041F00801218388F31188BFF399
:101810006F8F002FC8D03D68394633465246204668
:1018200006F004F82F46F4E7AB067FF51BAF25F072
:101830002003238305F0070500E700BF5978000067
:1018400008B50348034A0021121A06F002FA08BD3F
:10185000F0000020F00600200748084A084908B5B3
:10186000121A06F0F8F90748074A0849BDE8084087
:10187000121A06F0F0B900BF00000020F0000020AE
:1018800034A60000000000200000002034A6000064
:1018900038B505460C4699B1D1E901230F480968CE
:1018A00005F08BFFD4E90423E1680D4805F085FFBE
:1018B000E1690C4805F081FFA1690B4805F07DFF47
:1018C000012D05D1EFF305810848103905F075FFAA
:1018D00021462846BDE8384003F00ABB3E9F000081
:1018E0006E9F00009E9F0000AE9F0000DD9F0000E5
:1018F00030BFFFF7FDBF00BF2DE9F0410B4EDFF811
:10190000308006EB0807CC1B0546324609492046C5
:1019100007F0EBFBA01942460021083C07F0F3FB5F
:101920006C6607F10800BDE8F08100BF0000000010
:101930000400000004990000054B5A699B689A4214
:101940001FBF044A536843F080535360704700BF81
:10195000A406002000ED00E010B51D4C1D4805F068
:101960002CFFA36A990130D51B4805F026FF1E20E5
:10197000A36ADA0103D5194805F01FFF1F20144C94
:10198000A36A1B0303D5164805F017FF2120A36A9D
:10199000590303D5134805F010FF22200C4CA36A0D
:1019A0009A0303D5104805F008FF2320A36ADB0340
:1019B00003D50E4805F001FF2420054A936A6FEA1B
:1019C00003436FEA1343936210BD1D20D0E700BFAD
:1019D00000ED00E0F19F00000AA000001EA0000042
:1019E00039A0000058A000007EA0000099A00000CF
:1019F00070B5244C064624480D4605F0DEFEA36A69
:101A0000D90435D5214805F0D8FE1720A36A1A0558
:101A100003D51F4805F0D1FE18201A4CA36A9B0578
:101A20000FD51C4805F0C9FEA16BA36A180407D5A1
:101A3000194805F0C2FE1EB1A36A23F40043A36255
:101A40001920104CA36A590503D5144805F0B5FEBA
:101A50001A20A36ADA050DD5114805F0AEFE1B2049
:101A6000084A936A43F47F43936200232B7070BD4E
:101A70001620CBE7A36A9B04F2D50A4805F09DFE29
:101A80001C20EDE700ED00E0C5A00000DCA0000098
:101A9000EEA0000002A100001CA1000032A1000085
:101AA0004EA1000067A1000070B5264C06462648EE
:101AB0000D4605F082FEA36AD80640D5234805F0FE
:101AC0007CFE1120A36A190703D5214805F075FE95
:101AD00012201C4CA36A9A070FD51E4805F06DFE14
:101AE000616BA36A1B0607D51B4805F066FE1EB195
:101AF000A36A23F08003A3621320124CA36ADE07BB
:101B000003D5164805F059FE1420A36A9C0603D598
:101B1000134805F052FE15200A4B9A6AD10658BFA9
:101B20009A6A9A6A920642BF5A6A22F400525A622C
:101B30009A6A42F0FF029A6200232B7070BD102057
:101B4000C0E700BF00ED00E097A10000AEA10000DB
:101B5000EEA00000E2A10000FBA1000012A2000024
:101B600067A100002DE9F0415B4B5F688AB0044635
:101B7000C7F30806002585F31188BFF36F8F02F0C5
:101B80007F43B3F17F4F06D102F00C03082B13D132
:101B9000524805F012FE00252C464FF00008F31EB7
:101BA0008DF80780092B00F28580DFE803F00A79C1
:101BB0007D7583838383838110074CBF0C46012589
:101BC000EBE74748444E05F0F8FD8DF80780F36ACF
:101BD0009A0704D5434805F0F0FD00232FE0F36A8F
:101BE000002B01DA4048F6E7F36A5B00F5D53F4881
:101BF00005F0E3FD7369A26943F480737361BFF379
:101C00004F8FBFF36F8F736932F8022C23F4807308
:101C10007361BFF34F8FBFF36F8F4DF602739A421C
:101C200008D0B36ADBB24BB30DF107010120FFF717
:101C30003BFF33E021682E4805F0BFFD23689DF887
:101C40000720C2B902AE04F120072068616832465D
:101C500003C20834BC421646F7D1099AB5B3C2F3A1
:101C6000080121B96FEA52226FEA4222099202A9C1
:101C70001846FFF70DFE0AB0BDE8F081B36A13F411
:101C80007F4F05D00DF107010120FFF7B1FE05E000
:101C9000B36AB3F5803FA0D3FFF75EFE0346CEE7FD
:101CA0000DF107010020C2E70DF107010020ECE76C
:101CB000104890E7104B1149114817F4F87FA6F12E
:101CC000100218BF194605F078FD86E722F4FF726E
:101CD00022F00102CAE700BF00ED00E060A20000B0
:101CE0008CA20000A4A20000C6A20000D5A20000A1
:101CF000F5A2000012A3000047A2000032A20000DB
:101D000037A30000044B5A6942F010025A615A6925
:101D100022F008025A61704700ED00E0EFF30880FE
:101D2000EFF3098101B57246FFF71CFF01BD00BF4B
:101D30000B4880F3088801F0B1FF202080F3118860
:101D400008484FF40061401880F30988EFF31480CD
:101D50000221084380F31488BFF36F8F00F0ACF8C2
:101D600030180020F00A0020084B9B6883420BD1FA
:101D7000EFF3058343B1064B5A6842F080525A6034
:101D80005A6A22F400425A6204F066B8A40600209F
:101D900000ED00E011498A684FF030001044EFF385
:101DA000098C80E8F01F202080F31288BFF36F8F2A
:101DB0000B4F4FF000664A698A603E60506E094CD6
:101DC0002060906E0023936680F3118802F130004A
:101DD00090E8F01F8CF3098870470000A4060020EB
:101DE00004ED00E0840400201EF0040F0CBFEFF3AC
:101DF0000880EFF30980816911F8021C0229FFD0E5
:101E000001B5724605F029FF01BD00BF40B20028B0
:101E100007DB044A4109012300F01F00834042F818
:101E20002130704700E100E040B200280CDB43099C
:101E3000064900F01F0020330122824041F8232090
:101E4000BFF34F8FBFF36F8F704700BF00E100E01B
:101E5000054B420900F01F0053F82220012303FA2A
:101E600000F01040704700BF00E100E040B20028E1
:101E7000A8BF00F1604001F10101B8BF064B4FEA75
:101E80004111ACBF00F5614000F00F00C9B2B4BF12
:101E9000195480F80013704714ED00E0044B054A14
:101EA00023F07F039360BFF34F8FBFF36F8F7047B3
:101EB0000000000000ED00E008B5FFF7EFFF0B4A5F
:101EC000D2F8883023F47003C2F88830EFF314831B
:101ED00023F0040383F31488BFF36F8FFFF7B0FC84
:101EE000FFF7BAFC00F042F803F0C6F800ED00E09E
:101EF00042F8203C009B42F81C3C0A49019B42F8F6
:101F0000183C029B42F8143C21F001014FF0807311
:101F100042F8043C42F8081C0023203A026583661C
:101F2000704700BFF115000000B50B4B98600B4BDC
:101F30001546426E1A600E462C4686F3098800202C
:101F4000034B98472046002100220023014C2047E4
:101F50007F7C0000F1150000A4060020840400200E
:101F6000014B10221A61704700ED00E00448002385
:101F70002021C2180133302B82F80013F9D17047A9
:101F800000E100E008B5EFF30583064A103B02EBE1
:101F9000C30152F8330049688847BDE80840FFF79D
:101FA000CBBC00BF6C96000008B5024B1B6898477D
:101FB000002008BD88040020034B044A1860937871
:101FC00043F002039370704788040020080000204B
:101FD00008B50649064821F00701C1F1005202F593
:101FE000003205F0ABFB002008BD00BFF71C00204D
:101FF0008C040020024B0122C3F8402500207047CA
:1020000000E0014020B1034B800143F00103184779
:10201000704700BF109900007FB50D4D0D4E4FF079
:10202000FF324FF0FF3301A9284603F0EFF80028F4
:10203000F5D1094CB442F2D2236813B1019A93420C
:1020400003D1D4E9013101A898470C34F2E700BF6D
:10205000C80000200499000004990000F0B585B084
:10206000DDE90C5417461E46019023469DF82800D2
:102070008DF808002C432A468DF80910ADF80A7037
:10208000039609D0084907F003FA0C6F074909586D
:102090008C4204BF00221346054801A906F0ECFD5E
:1020A00000EAE07005B0F0BD600300200800000009
:1020B000C8000020084B70B5C31A0D4607499B1095
:1020C000044659430648402205F00AFE2B460146C5
:1020D0002046BDE870401847AC040020B76DDBB661
:1020E0002C95000073B50C4C0C4A4023041B009344
:1020F0000D460B460A49A41061430646094805F0FF
:102100001BFE011E05DA30462B4602B0BDE87040CA
:10211000184702B070BD00BFAC040020A37D0000D2
:10212000B76DDBB62C950000002270B50121044686
:102130001046FFF79BFE114801F066FE104B9842D7
:1021400018D1206900F0CCF901F070FE26690D4924
:10215000304605F08EFB00280BDB01253564246931
:10216000084904F11C0005F084FB002801DBE5644C
:10217000002070BD6FF00400FBE700BF3D220000AF
:102180000000AD0BE89B00001FB500220123CDE944
:102190000223094ACDF800D06B46CDF804D005F0F3
:1021A000F9FD002805DB4FF480420023684603F068
:1021B0008BF905B05DF804FBBB7D000010B5EFF3B3
:1021C0001184202383F31288BFF36F8F074A1368AB
:1021D00023F00201DB07116002D4012006F0F5FBB9
:1021E00084F31188BFF36F8F10BD00BFFC04002083
:1021F00030B4104B0C2202FB003301460020D3E91F
:102200000E529863EFF31180202484F31288BFF3F9
:102210006F8F1C6C04F0C00444F002041C6480F353
:102220001188BFF36F8F1DB12B46034830BC184790
:1022300030BC7047AC0400202C950000012810B57C
:1022400004460AD003280CD078B9084B1B6C5B07F6
:102250000BD1BDE81040FFF7CBBF00F04FF920468F
:10226000F7E7BDE8104000F057B910BDAC040020FE
:1022700010B4EFF31182202383F31288BFF36F8F22
:102280001748016841F002040460C80707D482F3CC
:102290001188BFF36F8F012010BC01F0D9BD4FF042
:1022A0008041D1F80C04D1F80C14C907EFD5EFF335
:1022B000118083F31288BFF36F8F0A490B6C03F010
:1022C000C00343F002030B6480F31188BFF36F8FE8
:1022D00082F31188BFF36F8F002010BCFFF788BF17
:1022E000FC040020AC040020024AC3B21C2003FB03
:1022F00000207047AC040020F8B52849BFF35B8F7D
:102300000646012251E8003F41E800200028F9D1AB
:10231000BFF35B8F33B9224922484B60CB608A60A0
:1023200005F0BAFA731E012B1DD806F092FD044683
:10233000D0B91D4B1B78BBB14FF080430222C3F8CC
:10234000082305464FF08047D7F81824D7F81834EB
:10235000D20312D59B0701D0012E0ED1BCB185F35B
:102360001188BFF36F8FF8BDEFF31185202383F33E
:102370001288BFF36F8F0124E4E71CB1284605F0F3
:1023800092FCE1E70021212006F0FDFDDCE74FF0A3
:1023900080430222C3F80423E5E700BFA80400201D
:1023A00098040020C8040020EB0600200D4BBFF36A
:1023B0005B8F012253E8001F002903D143E800206E
:1023C0000028F7D1BFF35B8F0AD107490023CB6008
:1023D000064B4B6003238B60054B186805F05CBA15
:1023E000704700BF1C05002004050020B524000034
:1023F0000005002007B500220023CDE9002308488E
:102400004FF40032002304F01DF8064B186805F065
:102410009AFA054B00221A6003B05DF804FB00BF76
:1024200090000020000500201C050020F7B51C4E80
:102430001C4CB7681C4DFB6840213046984740B1A2
:10244000002323702B8001F055FD0123237003B07E
:10245000F0BD0C213B696A46304698470028EFD111
:10246000124A019B93FBF2F3009A217803EB82035B
:102470001BB2B5F900200029E4D09A1A002AB8BF8F
:10248000524212B2012ADDDC094A136801390133D4
:102490002170136003B0BDE8F040FFF7ABBF00BF91
:1024A0000C960000DA060020D806002090D0030029
:1024B0001405002008B5074806F0B0FB28B901F064
:1024C00019FD054B01221A7008BDBDE808400348FC
:1024D00003F04EB90C960000DA0600201800002028
:1024E000034B044A186000231360034A13607047CB
:1024F000000500201805002014050020024B0022D2
:102500001A70FFF753BF00BFDA060020014806F03B
:10251000C8BD00BF90000020024A13680133136059
:10252000FFF768BF1805002008B5074806F076FBDE
:1025300038B10648FFF740FD0448FFF73BF800209C
:1025400008BD6FF01200FBE78C95000051250000DC
:102550000A2838B5074D044604D1AB680D215B68E5
:1025600028469847AB6803485B68E1B29847204625
:1025700038BD00BF8C950000036803F01F025B09A3
:10258000026004D0012B034818BF002070474FF0B1
:10259000A0407047000300502DE9F34144680069F2
:1025A0006368DFF824814FF0FF32C3F86025C3F879
:1025B0006425C3F86825C3F86C25626800230121EF
:1025C00043F6C255C2F80C15C2F80435C2F80855D6
:1025D00062684FF48175C2F810556268C2F8200530
:1025E0000420C2F82405C2F82835C2F82C356268E8
:1025F000C2F814356368E51DC3F8001204F10C0736
:1026000015F8016F0021304605F0E4FB06F07F0667
:1026100001A80196FFF7B0FF019B00EB8300BD42CC
:10262000D0F8003703EA080343F4407343F0030390
:10263000C0F80037E4D1DFF8908004F1110715F8F5
:10264000016F0021304605F0C5FB06F07F0601A8AA
:102650000196FFF791FF019B00EB8300BD42D0F88C
:10266000003703EA080343F00303C0F80037E6D15C
:102670002268D2F8083523F00303C2F8083523682E
:102680000121C3F81015236843F6C252C3F8402550
:10269000236840F20112C3F8002223680025C3F822
:1026A0004051D3F8403123684FF48032C3F80423FB
:1026B0001B202A46FFF7DAFB1B20FFF7A7FB284663
:1026C00002B0BDE8F08100BFF0F8FCFF90F83A10CE
:1026D0004A0701D00B0712D48906036C90F8392001
:1026E00009D59B5C0748203BDAB25E2A08D803EB89
:1026F00083031844704702EB820298187047014820
:10270000704700BF6BA300001FB5184C184820602D
:1027100006F084FA30B32068836869461B6A9847DC
:10272000009BB3F1051F17D1029B20689B0742BF96
:1027300094F83A3043F0800384F83A3083689B6918
:102740006BB1FF219847002804DB0A480A4906F0CC
:1027500044FB002004B010BD6FF08500FAE76FF075
:102760005700F7E76FF01200F4E700BF60010020A8
:10277000CC95000068010020A527000090F83A30B1
:10278000C1639B06016C08D50B78203BD9B25E294A
:1027900003499CBF03EB8303C91805F0C6BC00BF07
:1027A0006BA300002DE9F74F90F832506F070446F5
:1027B000A0F1080600F09D80C5F38017053705F0ED
:1027C0000708FFB2B84505F0080A50DADFF85CB137
:1027D0004FF0000905F02005A7EB08073046FFF78A
:1027E00075FF85B3A36BBAF1000F25D01B78203B92
:1027F000DAB25E2A39D803EB83035B4413F809305D
:1028000010F80920BB4042FA08F213430DF80930D2
:1028100009F10109B9F1050FE0D194F8323008F15E
:10282000010868F3020384F832306946304605F047
:102830002CFC03B0BDE8F08F94F83120995CA1B175
:1028400013445B78D3E7BAF1000F01D0A36BD5E74F
:1028500094F8302094F83130013A934205DA01338C
:1028600003EB8302A36B1344C8E7304BC6E790F831
:102870003130BAF1000F17D06FF3C30580F8325032
:1028800094F8322094F83110950611D5A36B5B5C57
:10289000B3FA83F35B09DBB1D00610D4304603B042
:1028A000BDE8F04F05F0E2BB013380F83130E7E7D7
:1028B00094F830308B428CBF00230123EBE70023D8
:1028C00084F8313094F8323043F0080384F8323021
:1028D00094F83230012262F3020384F83230304639
:1028E000FFF7F4FE0146304603B0BDE8F04F05F0B7
:1028F000CCBB90F831200132D2B2A90680F8312049
:102900000CD5836B9B5CB3FA83F35B09002BE6D099
:10291000EB06C3D5002384F83130E0E790F830307F
:1029200093428CBF00230123F0E700BF6BA300009C
:102930002DE9F04104460E461F469DF818801546C5
:1029400005F004FC002384F8393094F83A3084F818
:102950003880C6F3004223F0700343EA02134FF6B7
:10296000FE72164284F83A302764B3B203D0022BC9
:1029700007D0BDE8F08129462046BDE8F041FFF7C9
:10298000FDBE8DB1052395FBF3F594F83A30E56370
:1029900023F00F0343F0090384F83A30204603493B
:1029A000BDE8F04105F0C1BB5025EEE76BA3000088
:1029B0000048704760010020F0B516464268107B61
:1029C00001F01F0444EA4014106987B0002872D057
:1029D000B6F5001F02F1100506D12146284606F083
:1029E00074F8002007B0F0BD01A80027B6F5800FED
:1029F0000197476039D1B3F1007F14BF0523042349
:102A00008DF804300023CDE904030393936823FA7F
:102A100001F111F001010DF103073ED1B6F1A07FE4
:102A20003BD104F01F03620903F5E07328D0012AAB
:102A300047D1254A52F82330DB072ED43A462146A7
:102A4000284601F013FD214B98421CD0029703AA9F
:102A50002146284601F0CAFB1D4B98422ED1012287
:102A60002146284601F05AFDBBE7B3F1C06F05D0FF
:102A7000B3F1007F14BF01230223C1E70323BFE7A3
:102A80004FF0A042D6E73946284601F03FFD104BF3
:102A90009842DBD06FF00B00A4E73A462146284667
:102AA00001F0E4FC0A4B9842D1D19DF8031028466E
:102AB00001F024FDCBE76FF0850093E76FF0150080
:102AC00090E751F82330FFDE000300500400AD0B07
:102AD0000000AD0B420970B5034602D0012A17D0A1
:102AE00070BD0D4E326951680029F9D003F01F0303
:102AF00001250C689D400029F2D08A682A4002D046
:102B00004B68304698472CB1236821461C46F2E7B3
:102B1000024EE7E72346F8E76C9500004C9500006D
:102B200038B545682B69B3B11035284601F0DCFC97
:102B3000044680B90146284601F0B2FC084B984291
:102B40000BD108492246284601F08AFC224605217D
:102B50000620FFF78BF9002038BD6FF00400FBE77B
:102B60000000AD0BD52A00002DE9F043466840F285
:102B70000635D006337B87B002EA050554BFC2F3A1
:102B80004010032001F01F07B5F5837F144647EA84
:102B900043178DF8030044D00FD8062D18D007D85E
:102BA000B5B1022D3FD06FF0150007B0BDE8F0833E
:102BB000B5F5807FF7D101250AE040F20222954267
:102BC00033D0B5F5407F32D0B5F5007FEBD102258B
:102BD00022032ED5726801238B40C2F80835326972
:102BE00092BB07F01F037F092BD0012F79D13F4AF9
:102BF00002EB830284F48033D2F80017C3F300435E
:102C0000C4F3404444EA430421F4E16144EA80040B
:102C100021F0070144EA05230B43C2F800370020E6
:102C2000C3E70725D4E70425D2E70525D0E7032528
:102C3000CEE7630341BF012372688B40C2F80C35B5
:102C4000CDE74FF0A042D3E710360DF1020239462E
:102C5000304601F00BFC14F4403F80460CD139465D
:102C6000304605F030FF224B9845D8D19DF8021030
:102C7000304601F043FCD2E701AB4FF0000903AA54
:102C800039463046CDE90439CDE90199CDF80C90AB
:102C900001F0ACFA164B984285D114F4003315D0EC
:102CA0009DF803308DF80E3084F48034C4F3004472
:102CB0004B4603AA394630468DF80C508DF80D402E
:102CC00001F050FB0A4B9842CDD06CE7CDE90433BC
:102CD00003AA0DF1030339463046039301F086FA47
:102CE000F0E703F5E07352F82330FFDE00030050F5
:102CF0000000AD0B02780B69012A08D0022A08D027
:102D00004AB9064A1A6203F1100002F0A9BB044A4C
:102D1000F8E7044AF6E7044AF4E700BF0000AD0B09
:102D20000100AE0B0200AE0B0100AD0B2DE9F04F20
:102D300087B0D0F810B004934368D3F828809B8BF9
:102D4000039317464FF0FF334FF0FF3205460C4612
:102D500005F077FA0BF110030293002300220BF128
:102D60001000002602F0B0FB3346BE4201D3002320
:102D70004DE0207A010776D40136BE4221680BD29D
:102D8000820709D4227D80EA020C0CF0010C02F0CB
:102D900004025CEA020C08D023B901F06042B2F1EF
:102DA000005F1AD04FF0000901E04FF0010962689E
:102DB000DDF80CE003EB020CF44557D8C00705D44E
:102DC00008EB0300059306F090F9059B62681A442E
:102DD00093B2B9F1000F2FD113BBD4F800A0A38890
:102DE0004FF00009049A217A00922846524600F0DA
:102DF00063F8031E0BDB4FF480420298002302F0BD
:102E000063FB80B1284600F037F86FF004032846D2
:102E1000029305F019FA029B184607B0BDE8F08F3F
:102E20009946C246DEE7DBF82030124A9342ECD1E5
:102E3000237ADB0702D400230C3496E7C245FAD18B
:102E4000A24609E0A9EB02011FFA81F9DAF80C00A9
:102E500018FA81F106F049F9DAF804209145AAF14F
:102E60000C0AEFD2E7E76FF08503D0E76FF01B03A2
:102E7000CDE700BF0000AD0B70B544682368D3F800
:102E80000855D3F80C65204601F0FEFC3146284673
:102E900001F0C0FF00210546606A05F0D8F9204620
:102EA00001F0E2FC034B9D4214BF6FF00F000020C5
:102EB00070BD00BF0000AD0BF0B587B047680C4691
:102EC0001646002112220DF106001D4606F01BF9E0
:102ED00004F001038DF80430BDF830308DF8053072
:102EE000BB8D0295AB42049614D384F00202C2F368
:102EF0004002520101A9384601F012FD084B9842E8
:102F00000BD00B33984214BF6FF004006FF00F002A
:102F100007B0F0BD6FF01B00FAE70020F8E700BF34
:102F20000000AD0B38B545682B6A04469847686ABF
:102F3000012105F08CF92346AA6905F1080128460C
:102F400001F058FC054B984204D1204605F0A5F944
:102F5000002038BD6FF00400FBE700BF0000AD0BA0
:102F60002DE9F74F4568EC68183480460027019436
:102F70004FF0010B6B68BB4204DC2B7D002B6DD145
:102F8000002048E00C23D5F808A003FB07F60AEB65
:102F900006095AF8060005F041FE002871D0B9F87C
:102FA00006305AF8060099F8041043F48032D0F83D
:102FB00010C0D0F8089013F0010FDCF800300BFAC5
:102FC00001FE14BF4EEA030323EA0E03CCF80030DF
:102FD000D9F800309847F0B944F8188C2969204690
:102FE00005F0FBFE2B7D13B101374834C2E7D5F85D
:102FF00008A0254A0AEB0609A4F1140199F8043047
:103000000BFA03F344E904235AF806008368DB69EA
:1030100023B96FF0570003B0BDE8F08F0122984745
:103020000028F8DB99F804105AF8060005F054F966
:1030300004F8080CB9F806305AF8060099F804109C
:1030400003F0400382689669002EE2D043F0C0632B
:103050004FF0A072B0470028C6DADCE72D684FF4C5
:10306000004440F2E73000214FF47A720023E5FB80
:103070000401FDF713FD02460B46019802F0EAFB3E
:103080007EE76FF01200C6E7018300007FB50346BC
:10309000044653F8185D6968CA689B1A114ADB1028
:1030A00053438A68D618D058317905F015F9031EB4
:1030B00015DB14F9082C9A4211D004F8083C4FF0A3
:1030C000FF304FF0FF313289003BCDE902014FF074
:1030D0000101009118BF01232846FEF7BFFF04B08D
:1030E00070BD00BFACAAAAAA036803F01F025B0967
:1030F000026004D0012B034818BF002070474FF036
:10310000A0407047000300502DE9F04F534F85B0A9
:103110009246814600EB810140F2FF16494503D1FA
:10312000002005B0BDE8F08FD9F800305804C3F393
:10313000C322C3F3080400F18B801B0EBD5CB442B4
:1031400008BF4FF0FF34192B00F28580DFE803F051
:103150000D141B1E83838383838383215383838383
:10316000838383838383566A6D70CAF80C45631C1E
:1031700061D109F10409D1E7CAF81445621CF8D0FD
:103180004FF000080EE0CAF80845F0E7CAF810450D
:10319000F4E7CAF80845002DF0D1631CE9D04FF0E0
:1031A00000080625D9F80030019303F400400028F8
:1031B00003A816BF4FF00008C3464FF0010B03945D
:1031C000FFF792FF039C019B00EB8400C3F3412CAB
:1031D000D0F800472B0224F4413443EA8C0324F452
:1031E000437443EA080324F00304234343EA4B03F4
:1031F000C0F80037BDE7CAF80C45CCE7CAF860450F
:10320000601CD9F80030B4D0C3F300439BB903A8C5
:103210000394FFF769FF039B012202FA03F3C0F84E
:103220000C3512E0CAF86445EAE7CAF86845E7E7F2
:10323000CAF86C45E4E703A80394FFF755FF039B26
:10324000012202FA03F3C0F808354FF00108A9E79C
:103250006FF0150065E76FF0850062E779A5000063
:10326000014B01221A60704700C000400C2903691D
:103270000BD15B6A064907484B4393FBF0F100FB17
:10328000113311605360002070476FF08500704764
:1032900090D0030040420F00044B00690022C3F8A5
:1032A0000021D3F8003102F0DBB800BF00C00040BD
:1032B0007FB50569AB6A63B3402901D00C292BD1D6
:1032C00005F110064FF0FF324FF0FF33304601F0AA
:1032D000FFFF134B0193A86A03230024694603945C
:1032E000029304F0D9FA4FF0FF324FF0FF33284633
:1032F00002F0EAF8A86A04F026FB0A4BD3F8082586
:103300006A6201225A60304602F05AF8204604B040
:1033100070BD6FF00A00FAE76FF08500F7E700BFB5
:103320006132000000C0004010B504690020FEF7C3
:10333000DBFFA0624FF0FF320021204605F0B2FC17
:1033400004F1100005F0A7FC002201210C20FEF77B
:103350008DFD0C20FEF75AFD024B0122C3F8042319
:10336000002010BD00C0004070B5032904691CD8BE
:103370000F4B58560F4B5E560F49B04202F10802F0
:1033800001DD002070BD031D04EB43032569B3F983
:1033900001301B116B4393FBF1F501FB153342F830
:1033A000085C42F8043C0130E7E76FF08500E9E78C
:1033B00093A500008FA5000040420F00F0B5044621
:1033C0000569466885B00021A42005F0DCFD6B6826
:1033D0000DF107029B680F2120469847002825DB46
:1033E0009DF80730332B40D1327BD7070BD5204BCC
:1033F00044F6161142F28B40C3E900011D4949F21F
:103400002D26C3E90261930712D40026CDF8096086
:103410008DF80D6007238DF808306B6802AA5F688D
:10342000202106232046B84700280BDA05B0F0BD5E
:103430006B681E6980231A461E212046B04700286B
:10344000E3DAF3E70A4B1B682B616B683246DB68F3
:103450002321204698470028E8DB6B6847222A751D
:10346000DB68202120469847E0E76FF01500DDE794
:103470002800002094B6010010B54368046958681C
:1034800005F0CCFB18B1034B6360002010BD6FF05A
:103490001200FBE7149D00000B29F0B504D80729A2
:1034A0001BD86FF08500F0BD0C29FAD10169B1F984
:1034B0000A30002BB8BF0733DB1019331BB213607F
:1034C000B1F90A30594201F0070103F0070358BF70
:1034D0004B4212494B43536010E00B2918BF083987
:1034E00000690F4D19BFC9B20C46022400210430F7
:1034F00040F2DC57A14202F1080201DD0020D2E7D0
:1035000030F8113013FB07F393FBF5F605FB163388
:1035100042F8086C42F8043C0131EBE748E801004E
:1035200040420F0030B403460C46DA88006819792F
:1035300002F040022243836805699C697CB1130252
:1035400006D52D6801238B402B4218BF82F0C06244
:10355000054BA446134030BC02F0B07260476FF0D8
:10356000570030BC704700BF40000006F8B5446803
:103570000669E06905F052FB002837D01D4B7363E4
:10358000638CE06994F8201043F480320769D0F826
:1035900008C03D6813F0010F4FF0010303FA01F377
:1035A00014BF2B4325EA03033B60DCF80030984747
:1035B00000280FDB94F820300F48012202FA03F3B1
:1035C000C6E90803E0698368DB6906F11C0113B9E9
:1035D0006FF00400F8BD98470028F9DB04F11C00E7
:1035E0004FF0B861BDE8F840FFF79CBF6FF01500E1
:1035F000F0E700BF8F8800006F880000074BD3F80A
:10360000082142B10020C3F80801D3F80821D3F8FB
:1036100018350B7070474FF0FF30704700200040A6
:10362000024BD3F88004C3F88004704700200040A8
:10363000F8B50E4605F00DFC1A4D78BB6424012741
:10364000BFF35B8F55E8003F002B03D145E80072C4
:10365000002AF7D1BFF35B8F07D021200021013C66
:1036600005F091FC14F0FF04EAD10F4C0023C4F8DC
:103670001C31D4F81C310123A360C4F81C6542F24C
:103680001076D4F81C3123B9012005F044F9013E2D
:10369000F7D10123E36000232B60F8BD01232B60E9
:1036A000E3E700BFE005002000200040F7B5604AD6
:1036B000436805690024C2F800451F68064601AA50
:1036C0002146384604F036FE00280FDB019B3A689D
:1036D00019791868FFF718FD002807DB6B7937693F
:1036E000012B06D0032B03D06FF0850003B0F0BD93
:1036F0001024AB79032BF7D1E9790029F4D12A7989
:10370000012A1AD0022A1AD0002AEDD111462B68BC
:10371000B3F5164F6DD02FD8B3F5165F6BD018D810
:10372000B3F5966F69D00CD8B3F5967F68D0B3F532
:10373000167FD9D14FF41C3345E04FF480710E222F
:10374000E5E7B3F5166F5ED0B3F5965FCCD1394B94
:1037500039E0B3F5E14F59D007D8B3F5615F57D0E1
:10376000B3F5964FC0D1344B2DE047F6122083427B
:10377000BAD14FF4000326E0B3F5613F4BD011D826
:10378000B3F5963F49D008D84DF6C020834246D0C5
:10379000B3F5614FA8D1294B15E0B3F5E13FA3D1B3
:1037A000274B10E0B3F5612F3CD007D82548834262
:1037B0003AD0B3F5E12F97D1234B04E0234883425D
:1037C00092D14FF080531A4E14430C43C6F824355F
:1037D000C6F86C4595E8030087E803000423002041
:1037E000C6F80035C6F80801D6F808310123336061
:1037F0007CE7174BE7E7174BE5E74FF49E23E2E73B
:103800004FF4A033DFE74FF41D23DCE7124BDAE778
:103810004FF46C13D7E7114BD5E7114BD3E74FF4B7
:103820006503D0E70F4BCEE74FF08063CBE700BFD7
:103830000020004000B0130000A04E0000F0EB009C
:1038400000E0D70190D0030000705F0740420F00F6
:1038500000509D000050270000F0750000B0AF033D
:1038600000903A0100D0BE0E70B5012383400E4A8D
:10387000BFF35B8FDC4352E8001F01EA040542E816
:103880000056002EF7D1BFF35B8F4FF48032824099
:103890000648C0F80823BFF35F8FBFF36F8F0B425A
:1038A00014BF0120002070BDE80500200010014079
:1038B00070B40E49D1E90034D01AC31844F10004A1
:1038C00022F07F46C1E90034A6F50013B3F5400F9E
:1038D00009D2074B1B681A0A1B069C19054B42F1BB
:1038E0000005C3E9004570BC02F0ACBC70020020CA
:1038F000EC0500207802002011B3BFF35B8F012399
:10390000104A834052E800CF4CEA030C42E800C161
:103910000029F7D1BFF35B8F0B4A4FF4803383400C
:10392000C2F80433094BBFF35B8F1B68BFF35B8F97
:10393000C340DB0742BF064B4FF40032C3F80021FF
:10394000704700BFE805002000100140E40500209A
:1039500000E100E00D4B1868010A0006BFF35F8F1D
:103960000B4BD3F80435181841F10001B3F5801F53
:103970000AD2084BD3E90023904271EB030303D230
:1039800010F1807041F10001704700BFEC0500208C
:1039900000100140780200202DE9F04F85B0164656
:1039A0001F469DF840A00446FFF75EFF0190FFF719
:1039B000D1FFB04271EB070354D23E4B301A67EB94
:1039C0000101984271F100014FD23B4B03EB04130C
:1039D000D3E902239F4208BF96425ED037494FF495
:1039E000803804F1500508FA04F8AD00C1F84883A6
:1039F0002046ADB204F082FF26F07F4B05F18045F2
:103A000004F5A87305F58835DC464FF003090293E9
:103A1000029A2CF07F4341F82230C1F84483D1F858
:103A20000435274A6FF00200C01A604420F07F403E
:103A3000904232D9286868B1D1F804350393A3EBDA
:103A40000B0020F07F40B0F5000F26D9204604F08F
:103A500055FF039BBAF1000F07D109EB030C09F1E5
:103A60000109D5E7BAF1000F09D06FF0150520461E
:103A70000199FFF741FF284605B0BDE8F08F01230B
:103A8000104ABFF35B8FA34052E8000F184342E88F
:103A900000010029F8D1BFF35B8F07490E9823017D
:103AA00001EB0412C8500F9B5360C2E90267002566
:103AB000DDE700BF0100800060020020001001402F
:103AC000FDFF7F00E40500207FB51C4C1C4BC4F8B3
:103AD0000833C4F848331B4B00254FF0FF304FF03C
:103AE000FF31C4F80855C3E902014FF48033C4F82C
:103AF0000433154B02264FF400320121C4F804634D
:103B00001120C3F880212A46FEF7B0F91120FEF7F4
:103B10007DF90E4A0123A360236013600C4B0D4A0C
:103B20000093CDE9015500232846FFF735FF3046C5
:103B3000FEF7E2FB284604B070BD00BF0010014054
:103B400003000F006002002000E100E0E805002013
:103B5000B1380000FFFF7F002DE9F7432F4CD4F868
:103B6000043399070BD5D4F8043143B12C4A002310
:103B7000C4F80431D4F80431136801331360D4F865
:103B80000433DA0329D5BFF35B8F264B53E8002FAC
:103B900022F0010143E800100028F7D1BFF35B8F4A
:103BA000D30702D4D4F84031BBB10025C4F840514A
:103BB000D4F84031FFF7CEFEEFF31182202383F3D8
:103BC0001288BFF36F8F184BD3E90267B042B94137
:103BD00006D282F31188BFF36F8F03B0BDE8F08384
:103BE0004FF0FF384FF0FF39C3E90289D3E90010E5
:103BF0001D604FF48033C4F84833C4F84051D4F802
:103C0000403182F31188BFF36F8F0029E5D0009017
:103C100032463B4628468847DFE700BF0010014098
:103C2000EC050020E40500206002002030B5431CB4
:103C3000124C85B005D08442A8BF0446012CB8BF01
:103C40000124FFF787FE0E4B0C4DD3E90013401AF9
:103C5000B0F5000F10D22218AA4228BF2A465218E7
:103C60004FF0000007490091CDE9010043F1000346
:103C7000FFF792FE05B030BD2A46F0E7FFFF7F0058
:103C800070020020B138000008B5FFF763FE024B58
:103C90001B68C01A08BD00BF700200204FF080539F
:103CA000D3F830210D2A55D14FF080410022C1F8C0
:103CB0000C21C1F81021C1F83825304AD3F804048A
:103CC000C2F82005D3F80804C2F82405D3F80C0480
:103CD000C2F82805D3F81004C2F82C05D3F8140450
:103CE000C2F83005D3F81804C2F83405D3F81C0420
:103CF000C2F84005D3F82004C2F84405D3F82404E0
:103D0000C2F84805D3F82804C2F84C05D3F82C04AF
:103D1000C2F85005D3F83004C2F85405D3F834047F
:103D2000C2F86005D3F83804C2F86405D3F83C043F
:103D3000C2F86805D3F84004C2F86C05D3F84434DF
:103D4000C2F87035D1F80034DB0709D56FF00103F4
:103D5000C1F800344FF08053D3F830310D2B0CD123
:103D60004FF08053D3F834313BB14FF01023D3F8E8
:103D700008224FF08043C3F85825704700C0004028
:103D800030B50468CCB1BFF35B8FB4FA84F3C3F1F0
:103D90001F03DBB201229A4024EA020250E8005FCE
:103DA000A54204D140E8002CBCF1000FF6D1BFF3CE
:103DB0005B8FE6D102480B7030BD0248FCE700BFC4
:103DC0000000AD0B0200AD0B10B50368CB40DB0764
:103DD00014D401238B400268BFF35B8F43EA0201D6
:103DE00050E8004F944204D140E8001CBCF1000FA1
:103DF000F6D1BFF35B8FEED1014810BD0148FCE75F
:103E00000000AD0B0400AD0B054B1A792AB95A71AD
:103E1000012218601A71034870470348704700BFB9
:103E2000F00500200000AD0B0C00AD0B08B5074BF2
:103E30001B682BB10020FEF70BF808B9FDF7E6FF71
:103E40004FF080430022C3F8182508BDF00500207C
:103E500010B510B1012840D010BD4FF08043D3F809
:103E60001814D3F81824CC031ED5900702D00020D4
:103E700004F053FD4FF080430022C3F818250220C0
:103E800008224FF4827303F180430021196002F18C
:103E900080421C6801241460154A12680AB34FF06E
:103EA0008043C3F80403D7E7D3F81424D107E1D53E
:103EB000D3F81C249207DAD10D4A12681AB10222F3
:103EC000C3F80423C8E7D3F80421002AFBD000225A
:103ED000C3F80421D3F80431BEE700224FF4807305
:103EE000D1E71A68002AFCD019601B68B4E700BF4C
:103EF000F00500204FF08043D3F80C14D3F80C24C5
:103F0000C80322D5D10720D5D3F81824D2031CD555
:103F1000104A517901F0FF00C9B9C3F80C01D3F878
:103F20000C11012151711961126822B10822C3F8E4
:103F3000042309487047D3F80C21002AFBD0002243
:103F4000C3F80C21D3F80C31F3E704487047044858
:103F5000704700BFF00500200000AD0B0500AD0B61
:103F60000B00AD0BF8B54FF08043134ED3F804436C
:103F70000127002504B9F8BDB4FA84F0C0F11F0090
:103F8000830003F580739BB203F1804307FA00F2CC
:103F9000196892B224EA02040029EBD01D601B6864
:103FA0004FF08043082AC3F80823336808BF7571AF
:103FB000C0B29847DEE700BFF0050020036803F0B9
:103FC0001F025B09026004D0012B034818BF0020C8
:103FD00070474FF0A040704700030050034A430968
:103FE00000F01F00D35C1844C0B27047CAA500009F
:103FF00070B50546FFF7F2FF0C4C08300E4634F85A
:104000001030DA0508D5C3F3432304EBC302284676
:1040100054F8333052689847A3682BB1E2683146B0
:104020002846BDE87040184770BD00BFF805002065
:1040300008B5FFF7D3FF034B083033F81000400BEF
:1040400008BD00BFF805002008B5FFF7C7FF034B08
:10405000083033F81000C0F3400008BDF805002018
:1040600008B5FFF7BBFF034B083033F81000C0F36F
:10407000401008BDF8050020034611F0010010B5FE
:10408000CCB20DD1A207C4F3400012D5094AD2F830
:1040900020055860C2F82005003818BF012008E04C
:1040A0004FF0A041D1F820251A60C1F82025002A40
:1040B000E8D010BD0003005010B5FFF78FFF124A83
:1040C000083032F81030D9051CD5C3F3432123F44E
:1040D000F85322F8103002F10E04002034F8023FA9
:1040E00013F4807F03D0C3F3432399420AD00130F5
:1040F0002A28F3D1002342F831300448BDE81040AB
:10410000FFF762BE10BD00BFF80500206406002066
:1041100001F18051F0B501F5C2510446114A002069
:104120008900012506468A420BD10F4BD3F87C212A
:1041300032B10022C3F87C21D3F87C3140F000403A
:10414000F0BD02F14043A3F5C2439B0805FA03F317
:104150001C4204D0176817B1166017681843043260
:10416000E1E700BF0061004000600040F7B506468F
:104170000846FFF733FF194F00F108050C4637F8E2
:104180001530DB0727D5304604F079FC2046FFF7D1
:1041900067FF40B12046FFF74BFF316800F5A27082
:1041A000002341F820302046FFF786FF002301A8B6
:1041B00027F815300194FFF701FF019B00EB830006
:1041C000074BD0F80027134043F00203C0F8003734
:1041D000044803B0F0BD0448FBE700BFF805002029
:1041E000F0F8FCFF0000AD0B0400AD0B2DE9FF4122
:1041F000164680460846FFF7F1FE0C463168054634
:1042000009B32046FFF720FF18B12046FFF728FF2B
:1042100010BB0023CDE900338DF80E308DF80F3040
:104220000DF10F020B4620460DF10E0104F0CFFBFD
:10423000484A05F1080132F8113023F0020343F037
:10424000010322F8113073685BB320461F78596868
:10425000FFF7FAFE10B1C9B13F4825E03D4A05F12C
:10426000080C32F81C3023F02003DB04DB0C22F8AE
:104270001C3059B1032FEFD87168D8F80000496895
:104280000978A7B901F5A27140F82170314A05F10A
:10429000080132F8113023F01C0343EA870322F8A7
:1042A0001130B3686BBB2D4804B0BDE8F08100EB62
:1042B000810043EA4133D0F810E52EF0030EC0F838
:1042C00010E5D8F8000000EB810E43F02003DEF883
:1042D000100522F81C3020F44F3020F44070CEF846
:1042E00010052002DEF8108500F47C5040EA0740FB
:1042F00040EA0800CEF8100501F1380022F810401D
:10430000C4E7D3E900672046FFF7D6FE002ECAD0E7
:10431000104CD4E90023964203D19F4201D10022E0
:1043200009E00F480DF10F01FFF72AFD0B4B9842F2
:10433000BAD19DF80F2044F8326004EBC20308356F
:104340005F6034F8153043EA422343F4807324F865
:104350001530A8E7F80500200400AD0B0000AD0BF8
:10436000640600202DE9F0430C4685B080462046C7
:1043700011461E46FFF732FE054629B32046FFF7D9
:1043800063FE18B92046FFF76BFE18BB314F05F1ED
:10439000080937F8193013F01C0F02D04B78012BA5
:1043A00018D001238DF80F300023CDE900134A1CEB
:1043B0008B1C20460DF10F0104F009FB37F8193072
:1043C00043F0030327F81930002E41D02046FFF7B1
:1043D0003BFE18B9204805B0BDE8F08396F800C050
:1043E000D8F800301B4F0CF5A272002143F82210C0
:1043F00005F1080237F8121021F02001C904C90C98
:1044000027F8121075781DB3D8F80000B67800EBC5
:104410008C002D04D0F8103523F4991323F4F853AD
:10442000C0F81035230203F47C5305F440353605FB
:10443000D0F810E52B4306F4801641EA4C313343A3
:1044400041F0200143EA0E0327F81210C0F810359E
:104450000248C0E7F80500200400AD0B0000AD0BDA
:10446000014BC3E902127047F805002010B5084659
:104470001446FFF7F5FD50B10846FFF7AFFD054BB9
:10448000083033F8103004485B0B237010BD03482C
:10449000FCE700BFF80500200000AD0B0400AD0BE9
:1044A00070B50E4C94F880500646A5B954222946A2
:1044B00004F1100004F027FE3068C0F87C51D0F8F9
:1044C0007C3140F30730FDF7A1FC0123044884F858
:1044D0008030E36670BD0348FCE700BFF8050020AC
:1044E0000000AD0B0C00AD0B034B93F880000038BF
:1044F00018BF0120704700BFF80500200079024B6B
:1045000003EB8000FFF760BC400000200079024B05
:1045100003EB8000FFF734BC40000020F7B50546F0
:1045200008461646FFF79CFD0C462968F0B1204668
:10453000FFF78AFD0746C8B92046FFF779FD04B2A8
:10454000A40004F580728F508A5829682144D1F85C
:10455000102542F00102C1F810252EB12968012270
:1045600002FA00F3C1F8043303B0F0BDD1F804330C
:10457000002BA4BF4FF00043C1F804332046FFF7DF
:104580002DFD0F4B083033F81030C3F38203042B9A
:1045900012D0052B12D001A80194FFF70FFD019A4C
:1045A000D0F81035D34003F00103991C204603B026
:1045B000BDE8F04004F054BA0321F7E70221F5E723
:1045C000F80500202DE9F04F644BD3F80403C0B286
:1045D00087B0082140F00040FFF79AFD051E2BDA56
:1045E0000023032104A8CDE90433FFF745FDDFF8DC
:1045F00070A10DF110084FF000094FF0010B1AF8EF
:10460000013B5849DA0803F007038A5C22FA03F3F6
:10461000DA071CD408F10408B9F1000F14D0002106
:104620004FF00040FFF774FD032104A8FFF724FDBD
:104630000028DCD125F00045484E4B4F0124002DC9
:1046400078D107B0BDE8F08F4FF00109D7E7474BAD
:104650004B440093D8F800100029DBD0009B91FA5E
:10466000A1F11C78B1FA81F141EA44142046FFF728
:10467000B5FC3D4B0394083033F81070C80801F0C6
:10468000070118F800200BFA01F122EA0102BB0829
:1046900008F8002003A80193FFF790FC039A019B00
:1046A00002F5E072C7F3820650F822205B07374616
:1046B000C2F3014223D520463946D6B2FFF798FC13
:1046C00003A80394FFF77AFC039B03F5E07350F80B
:1046D0002330C3F301439E4207D10021204604F05A
:1046E000BFF93146204604F0BBF903A80394FFF755
:1046F00065FC039B0BFA03F3C0F82035AAE7022AF6
:104700000CD10321204604F0ABF906F00503012B80
:10471000EBD139462046FFF76BFCE6E70221204645
:10472000019204F09DF9032EF3D0019A032ADCD103
:10473000022EEDE795FAA5F3B3FA83F304FA03F238
:1047400025EA020503F5A272383356F8221037F82D
:104750001300C1F30141FFF74BFC70E7006000401C
:10476000DAA50000809D0000F8050020DAA5000011
:1047700030B500F01F04400911D0012812D10C48B7
:1047800000EB84001B02D0F800570A4C43EA820277
:104790002C4042EA41012143C0F8001730BD4FF0E0
:1047A000A040EDE704F5E074002353F82430FFDE69
:1047B00000030050F0F8FCFF10B4CC7B8A6803685B
:1047C0002CB9D1E90041C3F80845C3F80C15C3F86A
:1047D0002425037928225343054AD3582BB1006876
:1047E00010BC40F30730FDF711BB10BC704700BF91
:1047F0007C0600202DE9F04190F80480164E074613
:10480000282000FB08F035180C4695F82210F1B965
:10481000A96032506B6085F8251085F824106CB1C2
:10482000A37B85F82730204604F082F988B1637BAA
:1048300085F8263021463846FFF7BEFF282303FBC4
:1048400008660648012386F82230BDE8F081044856
:10485000FBE70448F9E700BF7C0600200000AD0B31
:104860000C00AD0B0400AD0B036802790621C3F800
:104870000015044B282101FB0233022283F8222079
:10488000704700BF7C06002002790C4B282101FBF9
:1048900002330021996002680948C2F80803D2F87F
:1048A000000220F4BC50C2F80002C2F80015012238
:1048B00083F8222083F82410704700BF7C06002074
:1048C00002029C01F8B5044607790068134D40F3D5
:1048D0000730FDF7A9FA2046FFF7D6FF282303FB90
:1048E000075393F8272092B993F826607EB923687E
:1048F000D3F80805D3F80C45324633460121FFF7BB
:1049000037FF3346324601212046FFF731FF282387
:1049100003FB0755002385F82230F8BD7C060020F4
:104920002DE9F84FB04D90F804900468282303FB5C
:1049300009539046002283F823204B680E4633B17A
:10494000CB6803F06043B3F1005F40F085813378BA
:10495000023B012B06D8336903F06043B3F1005FDB
:1049600040F07A81A14BC4F80833282303FB095394
:1049700093F8241001F0FF0239B19B68DFF870B2A0
:10498000C4F804335846BDE8F88F18F0140F0CBF74
:104990000121002183F82410317883F820107178E8
:1049A00083F82110F168D960716819613169596122
:1049B000B1689961C8F3001183F82510C3F81C8011
:1049C0007378C4F88835C4F86021D4F86031C4F82D
:1049D0004821D4F84831C4F82421D4F82431C4F84B
:1049E0000421D4F8043118F0010318BF0123C4F8DE
:1049F000503518F0020318BF0123C4F8403533784E
:104A000009EB890705EBC707032B00F2A380DFE85A
:104A100003F0799862024FF48073C4F80032D7E94A
:104A20000323C4F84425C4F848350123A3604FF498
:104A30008011204604F09FF80028F8D1D7E905231B
:104A4000C4F84425C4F84835282303FB09534FF420
:104A500080229A60DFF89CB1282202FB09F218F04C
:104A6000080AAB5805EB020013D13178032910D0A6
:104A7000012940F085802160002B6ED0282202FBA6
:104A800009F27168AA5821B9002A00F0BB800122FE
:104A90006261282202FB09F2A918AA58002A00F034
:104AA000B18018F0040F1CBF00228A6018F0400F7C
:104AB00006D1282202FB0952916841F0020191605F
:104AC000282202FB0952916841F4007191609268BA
:104AD000C4F8042356E7D7E90323C4F84425C4F8EF
:104AE0004835D7E90523C4F83425C4F838354FF4E0
:104AF0008453C4F8003201232362282303FB0953A3
:104B00000222A6E7D7E9032318F0200FC4F84425B2
:104B1000C4F848354FF0280315BF4FF480724FF4A6
:104B2000007203FB095303FB095315BFC4F80022AD
:104B3000C4F800224FF4802202229A6001232362EB
:104B400088E7D7E90323C4F83425C4F838354FF48F
:104B50008053CEE7DFF8A0B07EE7026902B9616159
:104B60002649DFF89CA0204604F005F8012210F445
:104B7000007F18BF626110EA0A0F2049F3D07DE779
:104B80000121A160002B7FF479AF006918B31C4BA1
:104B90001AEA030F7FF472AF1849204603F0EBFFC7
:104BA00010F4007F8246F2D04FF08071204603F06F
:104BB000E2FFD4F8001280B111F4007003D1012299
:104BC000226282466261CB05E1D54FF48021204606
:104BD00003F0D1FF04E06161D9E701222262626142
:104BE0004FF0000AD3E700BF7C06002002029C01C0
:104BF0000B00AD0B0000AD0B0400AD0B0202040076
:104C0000020004002821D4F8C424C4F8C42401FB01
:104C10000955002185F824108AB11149114B12F071
:104C2000010F14BF8B469B46013112F0020F18BFD3
:104C30008B4612F0040F0C4A18BF9346A2E618F0F8
:104C4000400F7FF49FAE3946204603F040FF054AEF
:104C5000002808BF934695E6DFF810B092E600BF43
:104C60000000AE0B0100AD0B0200AE0B0A00AD0B55
:104C700070B55C4D5C4C86B00221284603F07BFF8A
:104C80004FF400710646284603F075FFD8B1E6B927
:104C9000A368C5F808330223A360A368C5F80433EA
:104CA0004FF08071284603F066FF18B1D5F8003246
:104CB0009B0503D44B4B01221A625A61012384F8ED
:104CC000233006B070BD002E57D0E5696E060AD4B9
:104CD00094F823303BB94449424803F0F8FE80F091
:104CE000010084F8230015F0040524D13D4B94F80D
:104CF0002520C3F86051D3F86011C3F85C51D3F894
:104D00005C1112B194F8232052B10022C3F80022A2
:104D1000A260364AC3F80823354B0822C3F8802125
:104D2000238CADF80430E36804932369029363692C
:104D30000593A36903932B4AD2F8C434C2F8C43450
:104D4000980749D4590749D4DA0749D494F823304D
:104D50009B00DBB28DF8003094F825300BB984F855
:104D60002430E3695B0703D594F82330002BA8D0E7
:104D7000D4E9003168469847A3E74FF480212846DC
:104D800003F0F9FE94F82030A3B994F825304BB91C
:104D9000C5F80032A360154BC5F80833144B082240
:104DA000C3F8802100238DF8043094F821308DF869
:104DB0000530B8E74FF40073C5F8003240F2022323
:104DC000A36003F1CE73C5F80833A368C5F80433B4
:104DD0000123AB602B6274E70123BBE70223B9E731
:104DE0000323B7E7003000407C06002002029C014C
:104DF00000E100E0036803F01F025B09026004D0D9
:104E0000012B034818BF002070474FF0A0407047A7
:104E100000030050F7B5064603F0D7FE084603F03E
:104E2000D4FE01A80196FFF7E5FF019B2E4D00EB94
:104E300083000C46D0F80037019440F20D612B40FE
:104E40000B43C0F8003701A8FFF7D4FF019B00EB2C
:104E500083000127D0F800372B400B43C0F8003700
:104E6000042003F058FD092501A80194FFF7C2FFB3
:104E7000019AD0F81035D340DB0715D401A801966C
:104E8000FFF7B8FF019B07FA03F3C0F80C350420C5
:104E900003F041FD304603F098FE013D042003F08D
:104EA0003AFD15F0FF05DFD101A80194FFF7A2FF3D
:104EB000019A01239340C0F80C35042003F02BFD28
:104EC000204603F082FE042003F025FD01A8019492
:104ED000FFF790FF019AD0F810350448D34003F053
:104EE0000103C01A03B0F0BDF0F8FCFF0100AD0BE8
:104EF00038B5EFF31185202383F31288BFF36F8F4A
:104F0000064B9C6803F09DFE85F31188BFF36F8FFD
:104F10002046BDE83840FCF727BF00BFA4060020AC
:104F200038B50A4B53F82040013053F82050A542C1
:104F300000D838BD606830B1037FDB0701D403F0CF
:104F400055FE0834F3E723689847FAE7849D00008C
:104F500070B52A4B2A4C2B4D012286B003201A70C3
:104F6000FFF7DEFF01F0A6FA0420FFF7D9FF26467F
:104F7000AE4204F1300410D300F074FE204C224EF7
:104F8000AC4226D300F082FEFBF7F2FE1F4A137BF1
:104F900023F00103137306B070BD54F80C3C059365
:104FA00054F8103C049354F8143C039354F8183C00
:104FB000029354F81C3C019354F8203C009354E9AC
:104FC0000A2354E90C0100F04BFC54F8303C5E65B8
:104FD000CDE7D4E90A23B3F1FF3F08BFB2F1FF3FA9
:104FE00005D052EA0301206803D100F00BFF3034F2
:104FF000C6E73146183001F095F8F8E7EB060020D7
:10500000F097000020980000538F0000F00200206D
:1050100070B5144E144D1549702386B003FB00661D
:1050200001220023CDE904230F22CDE902320193AE
:10503000142303FB00554FF4A072044602FB001139
:105040000B4B0095304600F00BFC737B2C7423F067
:1050500004037373074BEE60013403EBC4236B60EE
:1050600006B070BD80020020A4060020F0120020CF
:10507000498C0000F00A0020BFB50020FFF750FF68
:10508000264B83F30888264C264F636943F400734C
:1050900063610025E02384F82230E5772576657684
:1050A000A57684F82050636A43F4E023636284F8B1
:1050B0002350FCF727FEFCF753FF4FF0FF33A362AA
:1050C0001948E36200F030FC0120FFF729FF0220BD
:1050D000FFF726FF00F00EFE144B154C5C61154BDC
:1050E0000593012314490095CDE903534FF48062E1
:1050F0003B46CDE90155204600F0B2FB627B0646F7
:1051000022F004022046627303F0E6FE2846FFF711
:105110007FFF3A4631462046FCF706FFF01200209A
:1051200000ED00E0514F0000F0030020A406002035
:10513000F0020020DCA50000301400202DE9F3412E
:1051400004460E469DF8200004F10808EFF311878D
:10515000202181F31288BFF36F8F256AE1688D42A9
:1051600041D22568AC4219D0C5B1284603F077FD7D
:1051700005F1180003F067FFA26828693146002492
:1051800003F0B3FF2846EC6603F0A6FE404639461E
:1051900000F042FD204602B0BDE8F081A268A8B14F
:1051A000E069314603F0A1FFE369A2681344626934
:1051B000E361934201D12369E361236A01332362EE
:1051C000002087F31188BFF36F8FE4E7A16923699B
:1051D000994204BF6369A361A069801AA061314646
:1051E00003F083FFE9E752EA03010AD00649896820
:1051F00040460E61CDE900233946224600F078FC96
:10520000C9E76FF02200DCE7A4060020F7B50446EA
:1052100004F108070846EFF31186202181F3128874
:10522000BFF36F8F216A002939D0A268A16903F00A
:105230005CFFA369A268256813446269A361934275
:1052400004BF2369A361236AAC4203F1FF332362E5
:1052500033D02846002D31D003F001FD05F11800B0
:1052600003F0F1FEA2682969E06903F03EFFE369FB
:10527000A26813446269E361934204BF2369E36156
:10528000236A0133236200242846EC6603F024FEDF
:105290003846314600F0C0FC204603B0F0BD52EA6B
:1052A000030110D0094989680861CDE9002331461E
:1052B0002246384600F01CFCEFE7002086F31188F8
:1052C000BFF36F8FE9E76FF02200F7E7A406002035
:1052D0002DE9F341044617461E46EFF311882023BB
:1052E00083F31288BFF36F8FC368334A7BB1806842
:1052F0009168884219D057EA060318D188F31188BB
:10530000BFF36F8F6FF00F0002B0BDE8F0819168BE
:1053100091F90E1021610133E3609368A36088F373
:105320001188BFF36F8F0020EEE72169F2E791F952
:105330000E1090F90E309942A8BF19466FF07E0208
:105340009142B8BF11468B422DDD03F09CFC05460F
:10535000CDE9007619482246414600F0C9FB0028F5
:10536000E1D0EFF31186202383F31288BFF36F8F10
:10537000A068D0B1236821699C420AD04BB193F94F
:105380000E309942A8BF19466FF07E039942B8BF0C
:10539000194603F078FC40B10848314600F03CFC67
:1053A0006FF00A00B0E70025D2E7002DF4D186F3B4
:1053B0001188BFF36F8FF3E7A4060020EC060020EE
:1053C000F8B583680546002B3FD0234A9268934284
:1053D0003ED1C368012B03D9013BC3600020F8BD57
:1053E000EFF31187202383F31288BFF36F8F0169D6
:1053F000806803F048FC2C68A54207D10023C5E96A
:10540000023387F31188BFF36F8FE7E7002CF5D0E5
:10541000D4E9003213605A60637B002623F0020354
:105420006373C4E90066A66004F1180003F00BFE84
:10543000AC6094F90E302B612046E66603F04CFD1B
:105440000648394600F0E8FBC8E76FF01500C6E7EC
:105450004FF0FF30C3E700BFA4060020EC06002099
:1054600070B5EFF31186202383F31288BFF36F8F9B
:105470000468A0421AD0CCB1D4E9003213605A605B
:10548000637B002523F002036373C4E90055A56024
:1054900004F1180003F0D7FD2046E56603F01CFD7B
:1054A00031460848BDE8704000F0B6BBD0E9023292
:1054B0009A4218BF0133836086F31188BFF36F8F60
:1054C00070BD00BFEC06002013B5EFF3118120245E
:1054D00084F31288BFF36F8F846844B1013C846009
:1054E00081F31188BFF36F8F002002B010BD52EA24
:1054F000030406D181F31188BFF36F8F6FF00F00A3
:10550000F3E7CDE900230246014800F0F1FAECE7A9
:10551000EC06002007B5074B0093074907484FF0FA
:10552000FF334FF4806200F029F9002003B05DF8EA
:1055300004FB00BF9C9D0000301800206003002089
:105540002DE9FF414D4E04462027EFF3118887F3E4
:105550001288BFF36F8F656FF5B9022104F18C00DB
:1055600003F0ACFB002865D004F184050022012182
:10557000284603F02FFD0028F8D1002302934FF0B6
:10558000FF324FF0FF33CDE90023414604F17C02A6
:105590003B4800F001FDD8E7A26F2B686367954296
:1055A00008BFA367D4F88C3043F00203C4F88C30F2
:1055B000EB6823F0040343F00103EB606B6888F3AE
:1055C0001188BFF36F8F28469847EFF3118887F350
:1055D0001288BFF36F8FEB68D80623F0010236D430
:1055E000EA60EB689A0716D5306823F00203EB6097
:1055F00088B10368002170B14268954235D10368D3
:1056000069BB72683360824200D17360002340F846
:10561000083BFFF725FFD4F88C3023F00203C4F8D1
:105620008C3088F31188BFF36F8FDB058DD400F0C9
:1056300069FB8AE7D4F88C30D9069ED5C4F88C0073
:1056400088F31188BFF36F8F04B0BDE8F08123F0B9
:105650001103EB6005F11000FFF702FFC1E70B60DB
:105660007368834208BF7160D0E723B11A680146AE
:1056700018461346BFE71A46F9E700BFC4060020E4
:10568000EC06002070B5C368C3F340069B070546CF
:105690000C460DD50122002104F1080003F002FBA5
:1056A00000232360054B65605A681AB9C3E90044BA
:1056B000304670BD14605C60FAE700BFC40600208D
:1056C000F8B5C3689A0704460F46C3F340062DD4C5
:1056D0005B071BD40B680BB983680B60E368DD07BD
:1056E00044BFA3683B603D684CBF02260126002DE5
:1056F00039D01E4B9A682B6F9A420AD0D5F88C305D
:10570000D807C3F3800214D46FF0120600233B6065
:1057100024E003F09EFBD5F88C300028F0D1D907A7
:10572000C3F3C002F0D552B15B0708D46FF00F0687
:10573000ECE7002AFAD1C3F3C003002BF6D1002313
:105740002360AB6F63B9C5E91D44284603F0D0FA66
:10575000E36843F00403E3603B68A3603046F8BDB0
:105760001C60AC67F1E76FF01506CFE7A4060020D8
:105770000146014803F021BB60030020F0B589B069
:1057800004460020C4E91D000E9D04F17C00C4E91C
:105790001F0004F18400C4E921004DB328790028DA
:1057A00040F2011008BF0120C4F88C0000204FF027
:1057B000FF364FF0FF37CDE90330CDE90100CDE9E9
:1057C00006670C4B0094204600F082F855B129681A
:1057D00011B1204603F043FB6B791BB1237B43F0EF
:1057E00001032373204600F00DFB246709B0F0BDD0
:1057F0000120D9E741550000F7B50C460190164647
:105800001D46EFF31187202383F31288BFF36F8FB8
:10581000084603F05EFA55EA060309D101A92046BD
:10582000FFF74EFF87F31188BFF36F8F03B0F0BD12
:10583000E368074943F00803E360019BA362324633
:105840002B4604F1100000F06DFC0120EAE700BFD8
:10585000598D000001460148FFF7CEBF60030020CC
:105860002DE9FF41984600F15803D51DC0E91633D4
:105870000E9B037325F007050423002643730D4494
:105880000D9B83730F46C0E9066629468660C67382
:105890000446FCF731F80C9B029307300B9B0193F5
:1058A00020F007000A9B00932D1A43462A463946EA
:1058B0002046FCF71DFB054B66659B6803B11B6E1C
:1058C0002366284604B0BDE8F08100BFA40600208E
:1058D000F0B587B000250595109D04950F9D0395A3
:1058E0000E9D0295DDE912760D9D01950C9D0095AA
:1058F0000446FFF7B5FFB6F1FF3F08BFB7F1FF3F22
:1059000005D056EA070305D1204600F07BFA204671
:1059100007B0F0BD3A46334604F11800014900F0E3
:1059200001FCF4E7538F000040F201138381002350
:105930000366014B98607047A4060020094A9368EB
:105940006FF00A01D966084998664B6843F08053A6
:105950004B60002383F31188BFF36F8F9368D86E79
:10596000704700BFA406002000ED00E070B590F97C
:105970000D20437B002A36DBD90634D11B4C63F063
:105980007F032246437352F8183FE169934207D1DF
:10599000C0E900210860E06111E09942F8D01B687D
:1059A000002BF5D090F90E5093F90E60B542F4D06B
:1059B000AE42F2DD5968C0E9003108605860A5695F
:1059C000954200D005B9E568A3685A7BD20604D198
:1059D000DA897F2A01D9AA6932B1AB4202D02846BE
:1059E00000F01AFB656170BD6361FCE7A40600204E
:1059F00038B590F90D20437B002A014604DA03F004
:105A00007F03437303F02EFA0D4D2A46AB6852F81C
:105A1000184F944200D004B9EC688B4207D05A7BEF
:105A2000D20604D1DA897F2A01D9A2692AB1A34218
:105A300002D0204600F0F0FA23466B6138BD00BF6B
:105A4000A4060020B3F1FF3F08BFB2F1FF3F03D02F
:105A50000249183000F066BB704700BF538F00004A
:105A600070B590F90D20437B002A014604DA03F05B
:105A70007F03437303F0F6F94B7B1C4C63F07F0309
:105A800022464B7352F8183FE069934207D1C1E9AF
:105A900000200160E16111E09842F8D01B68002B02
:105AA000F5D091F90E5093F90E60B542F4D0AE42A4
:105AB000F2DD5868C1E9003001605960A569A3684A
:105AC000954200D005B9E5688B4207D05A7BD206D3
:105AD00004D1DA897F2A01D9AA692AB1AB4202D05E
